{
  "_format": "hh-sol-artifact-1",
  "contractName": "BorrowYourCar",
  "sourceName": "contracts/BorrowYourCar.sol",
  "abi": [
    {
      "inputs": [],
      "stateMutability": "nonpayable",
      "type": "constructor"
    },
    {
      "inputs": [
        {
          "internalType": "address",
          "name": "sender",
          "type": "address"
        },
        {
          "internalType": "uint256",
          "name": "tokenId",
          "type": "uint256"
        },
        {
          "internalType": "address",
          "name": "owner",
          "type": "address"
        }
      ],
      "name": "ERC721IncorrectOwner",
      "type": "error"
    },
    {
      "inputs": [
        {
          "internalType": "address",
          "name": "operator",
          "type": "address"
        },
        {
          "internalType": "uint256",
          "name": "tokenId",
          "type": "uint256"
        }
      ],
      "name": "ERC721InsufficientApproval",
      "type": "error"
    },
    {
      "inputs": [
        {
          "internalType": "address",
          "name": "approver",
          "type": "address"
        }
      ],
      "name": "ERC721InvalidApprover",
      "type": "error"
    },
    {
      "inputs": [
        {
          "internalType": "address",
          "name": "operator",
          "type": "address"
        }
      ],
      "name": "ERC721InvalidOperator",
      "type": "error"
    },
    {
      "inputs": [
        {
          "internalType": "address",
          "name": "owner",
          "type": "address"
        }
      ],
      "name": "ERC721InvalidOwner",
      "type": "error"
    },
    {
      "inputs": [
        {
          "internalType": "address",
          "name": "receiver",
          "type": "address"
        }
      ],
      "name": "ERC721InvalidReceiver",
      "type": "error"
    },
    {
      "inputs": [
        {
          "internalType": "address",
          "name": "sender",
          "type": "address"
        }
      ],
      "name": "ERC721InvalidSender",
      "type": "error"
    },
    {
      "inputs": [
        {
          "internalType": "uint256",
          "name": "tokenId",
          "type": "uint256"
        }
      ],
      "name": "ERC721NonexistentToken",
      "type": "error"
    },
    {
      "anonymous": false,
      "inputs": [
        {
          "indexed": true,
          "internalType": "address",
          "name": "owner",
          "type": "address"
        },
        {
          "indexed": true,
          "internalType": "address",
          "name": "approved",
          "type": "address"
        },
        {
          "indexed": true,
          "internalType": "uint256",
          "name": "tokenId",
          "type": "uint256"
        }
      ],
      "name": "Approval",
      "type": "event"
    },
    {
      "anonymous": false,
      "inputs": [
        {
          "indexed": true,
          "internalType": "address",
          "name": "owner",
          "type": "address"
        },
        {
          "indexed": true,
          "internalType": "address",
          "name": "operator",
          "type": "address"
        },
        {
          "indexed": false,
          "internalType": "bool",
          "name": "approved",
          "type": "bool"
        }
      ],
      "name": "ApprovalForAll",
      "type": "event"
    },
    {
      "anonymous": false,
      "inputs": [
        {
          "indexed": false,
          "internalType": "uint256",
          "name": "carTokenId",
          "type": "uint256"
        },
        {
          "indexed": false,
          "internalType": "address",
          "name": "borrower",
          "type": "address"
        },
        {
          "indexed": false,
          "internalType": "uint256",
          "name": "startTime",
          "type": "uint256"
        },
        {
          "indexed": false,
          "internalType": "uint256",
          "name": "duration",
          "type": "uint256"
        }
      ],
      "name": "CarBorrowed",
      "type": "event"
    },
    {
      "anonymous": false,
      "inputs": [
        {
          "indexed": true,
          "internalType": "address",
          "name": "from",
          "type": "address"
        },
        {
          "indexed": true,
          "internalType": "address",
          "name": "to",
          "type": "address"
        },
        {
          "indexed": true,
          "internalType": "uint256",
          "name": "tokenId",
          "type": "uint256"
        }
      ],
      "name": "Transfer",
      "type": "event"
    },
    {
      "inputs": [
        {
          "internalType": "address",
          "name": "to",
          "type": "address"
        },
        {
          "internalType": "uint256",
          "name": "tokenId",
          "type": "uint256"
        }
      ],
      "name": "approve",
      "outputs": [],
      "stateMutability": "nonpayable",
      "type": "function"
    },
    {
      "inputs": [
        {
          "internalType": "address",
          "name": "owner",
          "type": "address"
        }
      ],
      "name": "balanceOf",
      "outputs": [
        {
          "internalType": "uint256",
          "name": "",
          "type": "uint256"
        }
      ],
      "stateMutability": "view",
      "type": "function"
    },
    {
      "inputs": [
        {
          "internalType": "uint256",
          "name": "carTokenId",
          "type": "uint256"
        },
        {
          "internalType": "uint256",
          "name": "duration",
          "type": "uint256"
        }
      ],
      "name": "borrowCar",
      "outputs": [],
      "stateMutability": "nonpayable",
      "type": "function"
    },
    {
      "inputs": [
        {
          "internalType": "uint256",
          "name": "carTokenId",
          "type": "uint256"
        },
        {
          "internalType": "uint256",
          "name": "returnTime",
          "type": "uint256"
        }
      ],
      "name": "borrowCar2",
      "outputs": [],
      "stateMutability": "nonpayable",
      "type": "function"
    },
    {
      "inputs": [
        {
          "internalType": "uint256",
          "name": "duration",
          "type": "uint256"
        }
      ],
      "name": "calculateBorrowCost",
      "outputs": [
        {
          "internalType": "uint256",
          "name": "",
          "type": "uint256"
        }
      ],
      "stateMutability": "nonpayable",
      "type": "function"
    },
    {
      "inputs": [
        {
          "internalType": "uint256",
          "name": "",
          "type": "uint256"
        }
      ],
      "name": "cars",
      "outputs": [
        {
          "internalType": "address",
          "name": "owner",
          "type": "address"
        },
        {
          "internalType": "address",
          "name": "borrower",
          "type": "address"
        },
        {
          "internalType": "uint256",
          "name": "borrowUntil",
          "type": "uint256"
        },
        {
          "internalType": "bool",
          "name": "isBorrowed",
          "type": "bool"
        }
      ],
      "stateMutability": "view",
      "type": "function"
    },
    {
      "inputs": [],
      "name": "createCars",
      "outputs": [],
      "stateMutability": "nonpayable",
      "type": "function"
    },
    {
      "inputs": [],
      "name": "getAllCars",
      "outputs": [
        {
          "internalType": "uint256[]",
          "name": "",
          "type": "uint256[]"
        }
      ],
      "stateMutability": "view",
      "type": "function"
    },
    {
      "inputs": [
        {
          "internalType": "uint256",
          "name": "tokenId",
          "type": "uint256"
        }
      ],
      "name": "getApproved",
      "outputs": [
        {
          "internalType": "address",
          "name": "",
          "type": "address"
        }
      ],
      "stateMutability": "view",
      "type": "function"
    },
    {
      "inputs": [],
      "name": "getAvailableCars",
      "outputs": [
        {
          "internalType": "uint256[]",
          "name": "",
          "type": "uint256[]"
        }
      ],
      "stateMutability": "view",
      "type": "function"
    },
    {
      "inputs": [
        {
          "internalType": "address",
          "name": "borrower1",
          "type": "address"
        }
      ],
      "name": "getMyBorrowedCars",
      "outputs": [
        {
          "internalType": "uint256[]",
          "name": "",
          "type": "uint256[]"
        }
      ],
      "stateMutability": "view",
      "type": "function"
    },
    {
      "inputs": [
        {
          "internalType": "address",
          "name": "owner",
          "type": "address"
        }
      ],
      "name": "getOwnedCars",
      "outputs": [
        {
          "internalType": "uint256[]",
          "name": "",
          "type": "uint256[]"
        }
      ],
      "stateMutability": "view",
      "type": "function"
    },
    {
      "inputs": [
        {
          "internalType": "address",
          "name": "owner",
          "type": "address"
        },
        {
          "internalType": "address",
          "name": "operator",
          "type": "address"
        }
      ],
      "name": "isApprovedForAll",
      "outputs": [
        {
          "internalType": "bool",
          "name": "",
          "type": "bool"
        }
      ],
      "stateMutability": "view",
      "type": "function"
    },
    {
      "inputs": [
        {
          "internalType": "uint256",
          "name": "carTokenId",
          "type": "uint256"
        }
      ],
      "name": "isCarBorrowed",
      "outputs": [
        {
          "internalType": "bool",
          "name": "",
          "type": "bool"
        }
      ],
      "stateMutability": "view",
      "type": "function"
    },
    {
      "inputs": [],
      "name": "myERC20",
      "outputs": [
        {
          "internalType": "contract MyERC20",
          "name": "",
          "type": "address"
        }
      ],
      "stateMutability": "view",
      "type": "function"
    },
    {
      "inputs": [],
      "name": "name",
      "outputs": [
        {
          "internalType": "string",
          "name": "",
          "type": "string"
        }
      ],
      "stateMutability": "view",
      "type": "function"
    },
    {
      "inputs": [
        {
          "internalType": "uint256",
          "name": "tokenId",
          "type": "uint256"
        }
      ],
      "name": "ownerOf",
      "outputs": [
        {
          "internalType": "address",
          "name": "",
          "type": "address"
        }
      ],
      "stateMutability": "view",
      "type": "function"
    },
    {
      "inputs": [],
      "name": "refreshAllCarStatus",
      "outputs": [],
      "stateMutability": "nonpayable",
      "type": "function"
    },
    {
      "inputs": [
        {
          "internalType": "uint256",
          "name": "carTokenId",
          "type": "uint256"
        }
      ],
      "name": "refreshCarStatus",
      "outputs": [],
      "stateMutability": "nonpayable",
      "type": "function"
    },
    {
      "inputs": [
        {
          "internalType": "uint256",
          "name": "carTokenId",
          "type": "uint256"
        }
      ],
      "name": "returnCar",
      "outputs": [],
      "stateMutability": "nonpayable",
      "type": "function"
    },
    {
      "inputs": [
        {
          "internalType": "address",
          "name": "from",
          "type": "address"
        },
        {
          "internalType": "address",
          "name": "to",
          "type": "address"
        },
        {
          "internalType": "uint256",
          "name": "tokenId",
          "type": "uint256"
        }
      ],
      "name": "safeTransferFrom",
      "outputs": [],
      "stateMutability": "nonpayable",
      "type": "function"
    },
    {
      "inputs": [
        {
          "internalType": "address",
          "name": "from",
          "type": "address"
        },
        {
          "internalType": "address",
          "name": "to",
          "type": "address"
        },
        {
          "internalType": "uint256",
          "name": "tokenId",
          "type": "uint256"
        },
        {
          "internalType": "bytes",
          "name": "data",
          "type": "bytes"
        }
      ],
      "name": "safeTransferFrom",
      "outputs": [],
      "stateMutability": "nonpayable",
      "type": "function"
    },
    {
      "inputs": [
        {
          "internalType": "address",
          "name": "operator",
          "type": "address"
        },
        {
          "internalType": "bool",
          "name": "approved",
          "type": "bool"
        }
      ],
      "name": "setApprovalForAll",
      "outputs": [],
      "stateMutability": "nonpayable",
      "type": "function"
    },
    {
      "inputs": [
        {
          "internalType": "bytes4",
          "name": "interfaceId",
          "type": "bytes4"
        }
      ],
      "name": "supportsInterface",
      "outputs": [
        {
          "internalType": "bool",
          "name": "",
          "type": "bool"
        }
      ],
      "stateMutability": "view",
      "type": "function"
    },
    {
      "inputs": [],
      "name": "symbol",
      "outputs": [
        {
          "internalType": "string",
          "name": "",
          "type": "string"
        }
      ],
      "stateMutability": "view",
      "type": "function"
    },
    {
      "inputs": [
        {
          "internalType": "uint256",
          "name": "tokenId",
          "type": "uint256"
        }
      ],
      "name": "tokenURI",
      "outputs": [
        {
          "internalType": "string",
          "name": "",
          "type": "string"
        }
      ],
      "stateMutability": "view",
      "type": "function"
    },
    {
      "inputs": [],
      "name": "totalCars",
      "outputs": [
        {
          "internalType": "uint256",
          "name": "",
          "type": "uint256"
        }
      ],
      "stateMutability": "view",
      "type": "function"
    },
    {
      "inputs": [],
      "name": "totalRentedCars",
      "outputs": [
        {
          "internalType": "uint256",
          "name": "",
          "type": "uint256"
        }
      ],
      "stateMutability": "view",
      "type": "function"
    },
    {
      "inputs": [
        {
          "internalType": "address",
          "name": "from",
          "type": "address"
        },
        {
          "internalType": "address",
          "name": "to",
          "type": "address"
        },
        {
          "internalType": "uint256",
          "name": "tokenId",
          "type": "uint256"
        }
      ],
      "name": "transferFrom",
      "outputs": [],
      "stateMutability": "nonpayable",
      "type": "function"
    }
  ],
  "bytecode": "0x60806040523480156200001157600080fd5b506040518060400160405280600d81526020017f426f72726f77596f7572436172000000000000000000000000000000000000008152506040518060400160405280600381526020017f425943000000000000000000000000000000000000000000000000000000000081525081600090816200008f9190620003c1565b508060019081620000a19190620003c1565b505050600060078190555060006008819055506000600a81905550604051620000ca9062000139565b620000d59062000559565b604051809103906000f080158015620000f2573d6000803e3d6000fd5b50600960006101000a81548173ffffffffffffffffffffffffffffffffffffffff021916908373ffffffffffffffffffffffffffffffffffffffff16021790555062000590565b6114bb806200424a83390190565b600081519050919050565b7f4e487b7100000000000000000000000000000000000000000000000000000000600052604160045260246000fd5b7f4e487b7100000000000000000000000000000000000000000000000000000000600052602260045260246000fd5b60006002820490506001821680620001c957607f821691505b602082108103620001df57620001de62000181565b5b50919050565b60008190508160005260206000209050919050565b60006020601f8301049050919050565b600082821b905092915050565b600060088302620002497fffffffffffffffffffffffffffffffffffffffffffffffffffffffffffffffff826200020a565b6200025586836200020a565b95508019841693508086168417925050509392505050565b6000819050919050565b6000819050919050565b6000620002a26200029c62000296846200026d565b62000277565b6200026d565b9050919050565b6000819050919050565b620002be8362000281565b620002d6620002cd82620002a9565b84845462000217565b825550505050565b600090565b620002ed620002de565b620002fa818484620002b3565b505050565b5b81811015620003225762000316600082620002e3565b60018101905062000300565b5050565b601f82111562000371576200033b81620001e5565b6200034684620001fa565b8101602085101562000356578190505b6200036e6200036585620001fa565b830182620002ff565b50505b505050565b600082821c905092915050565b6000620003966000198460080262000376565b1980831691505092915050565b6000620003b1838362000383565b9150826002028217905092915050565b620003cc8262000147565b67ffffffffffffffff811115620003e857620003e762000152565b5b620003f48254620001b0565b6200040182828562000326565b600060209050601f83116001811462000439576000841562000424578287015190505b620004308582620003a3565b865550620004a0565b601f1984166200044986620001e5565b60005b8281101562000473578489015182556001820191506020850194506020810190506200044c565b868310156200049357848901516200048f601f89168262000383565b8355505b6001600288020188555050505b505050505050565b600082825260208201905092915050565b7f5a4a55546f6b656e000000000000000000000000000000000000000000000000600082015250565b6000620004f1600883620004a8565b9150620004fe82620004b9565b602082019050919050565b7f5a4a55546f6b656e53796d626f6c000000000000000000000000000000000000600082015250565b600062000541600e83620004a8565b91506200054e8262000509565b602082019050919050565b600060408201905081810360008301526200057481620004e2565b90508181036020830152620005898162000532565b9050919050565b613caa80620005a06000396000f3fe608060405234801561001057600080fd5b50600436106101cf5760003560e01c806370a0823111610104578063bf8418dd116100a2578063e865af0411610071578063e865af041461052c578063e985e9c514610548578063f7746e3614610578578063fbebccd7146105ab576101cf565b8063bf8418dd14610492578063c87b56dd1461049c578063ce19c800146104cc578063cf5d6b44146104fc576101cf565b8063a22cb465116100de578063a22cb46514610432578063a62560541461044e578063abfe5d5714610458578063b88d4fde14610476576101cf565b806370a08231146103c8578063901760e0146103f857806395d89b4114610414576101cf565b80632f5637ea1161017157806342842e0e1161014b57806342842e0e14610340578063433b80461461035c5780636352211e1461037a5780636d3739c4146103aa576101cf565b80632f5637ea146102c4578063375cf7cb146102f4578063400a5a9714610324576101cf565b8063095ea7b3116101ad578063095ea7b31461025257806317f956e01461026e578063214e563c1461028a57806323b872dd146102a8576101cf565b806301ffc9a7146101d457806306fdde0314610204578063081812fc14610222575b600080fd5b6101ee60048036038101906101e99190612fd5565b6105c9565b6040516101fb919061301d565b60405180910390f35b61020c6106ab565b60405161021991906130c8565b60405180910390f35b61023c60048036038101906102379190613120565b61073d565b604051610249919061318e565b60405180910390f35b61026c600480360381019061026791906131d5565b610759565b005b61028860048036038101906102839190613120565b61076f565b005b61029261082b565b60405161029f9190613224565b60405180910390f35b6102c260048036038101906102bd919061323f565b610831565b005b6102de60048036038101906102d99190613120565b610933565b6040516102eb9190613224565b60405180910390f35b61030e60048036038101906103099190613292565b61095e565b60405161031b919061337d565b60405180910390f35b61033e60048036038101906103399190613120565b610b68565b005b61035a6004803603810190610355919061323f565b610c74565b005b610364610c94565b604051610371919061337d565b60405180910390f35b610394600480360381019061038f9190613120565b610db6565b6040516103a1919061318e565b60405180910390f35b6103b2610dc8565b6040516103bf91906133fe565b60405180910390f35b6103e260048036038101906103dd9190613292565b610dee565b6040516103ef9190613224565b60405180910390f35b610412600480360381019061040d9190613419565b610ea8565b005b61041c6110d9565b60405161042991906130c8565b60405180910390f35b61044c60048036038101906104479190613485565b61116b565b005b610456611181565b005b6104606112a8565b60405161046d919061337d565b60405180910390f35b610490600480360381019061048b91906135fa565b611341565b005b61049a61135e565b005b6104b660048036038101906104b19190613120565b611a69565b6040516104c391906130c8565b60405180910390f35b6104e660048036038101906104e19190613120565b611ad2565b6040516104f3919061301d565b60405180910390f35b61051660048036038101906105119190613292565b611b75565b604051610523919061337d565b60405180910390f35b61054660048036038101906105419190613419565b611cc9565b005b610562600480360381019061055d919061367d565b6120de565b60405161056f919061301d565b60405180910390f35b610592600480360381019061058d9190613120565b612172565b6040516105a294939291906136bd565b60405180910390f35b6105b36121ef565b6040516105c09190613224565b60405180910390f35b60007f80ac58cd000000000000000000000000000000000000000000000000000000007bffffffffffffffffffffffffffffffffffffffffffffffffffffffff1916827bffffffffffffffffffffffffffffffffffffffffffffffffffffffff1916148061069457507f5b5e139f000000000000000000000000000000000000000000000000000000007bffffffffffffffffffffffffffffffffffffffffffffffffffffffff1916827bffffffffffffffffffffffffffffffffffffffffffffffffffffffff1916145b806106a457506106a3826121f5565b5b9050919050565b6060600080546106ba90613731565b80601f01602080910402602001604051908101604052809291908181526020018280546106e690613731565b80156107335780601f1061070857610100808354040283529160200191610733565b820191906000526020600020905b81548152906001019060200180831161071657829003601f168201915b5050505050905090565b60006107488261225f565b50610752826122e7565b9050919050565b61076b8282610766612324565b61232c565b5050565b60006006600083815260200190815260200160002060010160006101000a81548173ffffffffffffffffffffffffffffffffffffffff021916908373ffffffffffffffffffffffffffffffffffffffff1602179055506000600660008381526020019081526020016000206002018190555060006006600083815260200190815260200160002060030160006101000a81548160ff0219169083151502179055506008600081548092919061082390613791565b919050555050565b60075481565b600073ffffffffffffffffffffffffffffffffffffffff168273ffffffffffffffffffffffffffffffffffffffff16036108a35760006040517f64a0ae9200000000000000000000000000000000000000000000000000000000815260040161089a919061318e565b60405180910390fd5b60006108b783836108b2612324565b61233e565b90508373ffffffffffffffffffffffffffffffffffffffff168173ffffffffffffffffffffffffffffffffffffffff161461092d578382826040517f64283d7b000000000000000000000000000000000000000000000000000000008152600401610924939291906137ba565b60405180910390fd5b50505050565b60006001603c836109449190613820565b61094e9190613851565b600a81905550600a549050919050565b60606000805b600754811015610a26578373ffffffffffffffffffffffffffffffffffffffff166006600083815260200190815260200160002060010160009054906101000a900473ffffffffffffffffffffffffffffffffffffffff1673ffffffffffffffffffffffffffffffffffffffff161480156109ff57506006600082815260200190815260200160002060030160009054906101000a900460ff165b15610a13578180610a0f90613885565b9250505b8080610a1e90613885565b915050610964565b5060008167ffffffffffffffff811115610a4357610a426134cf565b5b604051908082528060200260200182016040528015610a715781602001602082028036833780820191505090505b5090506000915060005b600754811015610b5d578473ffffffffffffffffffffffffffffffffffffffff166006600083815260200190815260200160002060010160009054906101000a900473ffffffffffffffffffffffffffffffffffffffff1673ffffffffffffffffffffffffffffffffffffffff16148015610b1657506006600082815260200190815260200160002060030160009054906101000a900460ff165b15610b4a5780828481518110610b2f57610b2e6138cd565b5b6020026020010181815250508280610b4690613885565b9350505b8080610b5590613885565b915050610a7b565b508092505050919050565b600073ffffffffffffffffffffffffffffffffffffffff16610b8982610db6565b73ffffffffffffffffffffffffffffffffffffffff1603610bdf576040517f08c379a0000000000000000000000000000000000000000000000000000000008152600401610bd690613948565b60405180910390fd5b6006600082815260200190815260200160002060030160009054906101000a900460ff168015610c245750426006600083815260200190815260200160002060020154105b15610c715760006006600083815260200190815260200160002060030160006101000a81548160ff02191690831515021790555060086000815480929190610c6b90613791565b91905055505b50565b610c8f83838360405180602001604052806000815250611341565b505050565b60606000600854600754610ca89190613968565b67ffffffffffffffff811115610cc157610cc06134cf565b5b604051908082528060200260200182016040528015610cef5781602001602082028036833780820191505090505b5090506000805b600754811015610dad57600073ffffffffffffffffffffffffffffffffffffffff16610d2182610db6565b73ffffffffffffffffffffffffffffffffffffffff1614158015610d6657506006600082815260200190815260200160002060030160009054906101000a900460ff16155b15610d9a5780838381518110610d7f57610d7e6138cd565b5b6020026020010181815250508180610d9690613885565b9250505b8080610da590613885565b915050610cf6565b50819250505090565b6000610dc18261225f565b9050919050565b600960009054906101000a900473ffffffffffffffffffffffffffffffffffffffff1681565b60008073ffffffffffffffffffffffffffffffffffffffff168273ffffffffffffffffffffffffffffffffffffffff1603610e615760006040517f89c62b64000000000000000000000000000000000000000000000000000000008152600401610e58919061318e565b60405180910390fd5b600360008373ffffffffffffffffffffffffffffffffffffffff1673ffffffffffffffffffffffffffffffffffffffff168152602001908152602001600020549050919050565b600073ffffffffffffffffffffffffffffffffffffffff16610ec983610db6565b73ffffffffffffffffffffffffffffffffffffffff1603610f1f576040517f08c379a0000000000000000000000000000000000000000000000000000000008152600401610f1690613948565b60405180910390fd5b600073ffffffffffffffffffffffffffffffffffffffff166006600084815260200190815260200160002060010160009054906101000a900473ffffffffffffffffffffffffffffffffffffffff1673ffffffffffffffffffffffffffffffffffffffff1614610fc4576040517f08c379a0000000000000000000000000000000000000000000000000000000008152600401610fbb906139e8565b60405180910390fd5b600033905060004290506000839050826006600087815260200190815260200160002060010160006101000a81548173ffffffffffffffffffffffffffffffffffffffff021916908373ffffffffffffffffffffffffffffffffffffffff16021790555080600660008781526020019081526020016000206002018190555060016006600087815260200190815260200160002060030160006101000a81548160ff0219169083151502179055506008600081548092919061108590613885565b91905055507f8879d78706834dc00d82232992f71250fab6a1f70b08260968253950083d88cd85848485886110ba9190613968565b6040516110ca9493929190613a08565b60405180910390a15050505050565b6060600180546110e890613731565b80601f016020809104026020016040519081016040528092919081815260200182805461111490613731565b80156111615780601f1061113657610100808354040283529160200191611161565b820191906000526020600020905b81548152906001019060200180831161114457829003601f168201915b5050505050905090565b61117d611176612324565b8383612558565b5050565b60005b6007548110156112a5576006600082815260200190815260200160002060030160009054906101000a900460ff1680156111d35750426006600083815260200190815260200160002060020154105b156112925760006006600083815260200190815260200160002060030160006101000a81548160ff02191690831515021790555060006006600083815260200190815260200160002060010160006101000a81548173ffffffffffffffffffffffffffffffffffffffff021916908373ffffffffffffffffffffffffffffffffffffffff160217905550600060066000838152602001908152602001600020600201819055506008600081548092919061128c90613791565b91905055505b808061129d90613885565b915050611184565b50565b6060600060075467ffffffffffffffff8111156112c8576112c76134cf565b5b6040519080825280602002602001820160405280156112f65781602001602082028036833780820191505090505b50905060005b600754811015611339578082828151811061131a576113196138cd565b5b602002602001018181525050808061133190613885565b9150506112fc565b508091505090565b61134c848484610831565b611358848484846126c7565b50505050565b6000600267ffffffffffffffff81111561137b5761137a6134cf565b5b6040519080825280602002602001820160405280156113a95781602001602082028036833780820191505090505b5090507371842261af79d9640cc9f72f1e76eff49d653624816000815181106113d5576113d46138cd565b5b602002602001019073ffffffffffffffffffffffffffffffffffffffff16908173ffffffffffffffffffffffffffffffffffffffff1681525050732e4892ec35a41695cf95bf20f2b500a048d605b081600181518110611438576114376138cd565b5b602002602001019073ffffffffffffffffffffffffffffffffffffffff16908173ffffffffffffffffffffffffffffffffffffffff168152505073f957c6bbb01b0611e800335f8b8f80abecfe6c138160028151811061149b5761149a6138cd565b5b602002602001019073ffffffffffffffffffffffffffffffffffffffff16908173ffffffffffffffffffffffffffffffffffffffff168152505073b306854d7e77516413db350e73890a4c2507a170816003815181106114fe576114fd6138cd565b5b602002602001019073ffffffffffffffffffffffffffffffffffffffff16908173ffffffffffffffffffffffffffffffffffffffff168152505073bd4850ff5692df75c8f78b47732ad0eaabec2fee81600481518110611561576115606138cd565b5b602002602001019073ffffffffffffffffffffffffffffffffffffffff16908173ffffffffffffffffffffffffffffffffffffffff1681525050738a6a3e2f007157a1665dfdcd916a4b5fe054c87b816005815181106115c4576115c36138cd565b5b602002602001019073ffffffffffffffffffffffffffffffffffffffff16908173ffffffffffffffffffffffffffffffffffffffff168152505073f891eae8c49aac400364d9f2e906de240e51e31181600681518110611627576116266138cd565b5b602002602001019073ffffffffffffffffffffffffffffffffffffffff16908173ffffffffffffffffffffffffffffffffffffffff1681525050738798bb05cc335615b8bf56bae3de3fc907d7ff978160078151811061168a576116896138cd565b5b602002602001019073ffffffffffffffffffffffffffffffffffffffff16908173ffffffffffffffffffffffffffffffffffffffff168152505073c64bac49a643140b11a9c69eeb5e3f14ffdfa303816008815181106116ed576116ec6138cd565b5b602002602001019073ffffffffffffffffffffffffffffffffffffffff16908173ffffffffffffffffffffffffffffffffffffffff16815250507370f66b58bdfb582a22cfc301a14c13c65a40dc66816009815181106117505761174f6138cd565b5b602002602001019073ffffffffffffffffffffffffffffffffffffffff16908173ffffffffffffffffffffffffffffffffffffffff168152505060005b60038110156118405760006117bb8383815181106117ae576117ad6138cd565b5b602002602001015161287e565b90508282815181106117d0576117cf6138cd565b5b60200260200101516006600083815260200190815260200160002060000160006101000a81548173ffffffffffffffffffffffffffffffffffffffff021916908373ffffffffffffffffffffffffffffffffffffffff16021790555050808061183890613885565b91505061178d565b5060005b60058110156118f7576000611872838381518110611865576118646138cd565b5b602002602001015161287e565b9050828281518110611887576118866138cd565b5b60200260200101516006600083815260200190815260200160002060000160006101000a81548173ffffffffffffffffffffffffffffffffffffffff021916908373ffffffffffffffffffffffffffffffffffffffff1602179055505080806118ef90613885565b915050611844565b5060005b60078110156119ae57600061192983838151811061191c5761191b6138cd565b5b602002602001015161287e565b905082828151811061193e5761193d6138cd565b5b60200260200101516006600083815260200190815260200160002060000160006101000a81548173ffffffffffffffffffffffffffffffffffffffff021916908373ffffffffffffffffffffffffffffffffffffffff1602179055505080806119a690613885565b9150506118fb565b5060005b600a811015611a655760006119e08383815181106119d3576119d26138cd565b5b602002602001015161287e565b90508282815181106119f5576119f46138cd565b5b60200260200101516006600083815260200190815260200160002060000160006101000a81548173ffffffffffffffffffffffffffffffffffffffff021916908373ffffffffffffffffffffffffffffffffffffffff160217905550508080611a5d90613885565b9150506119b2565b5050565b6060611a748261225f565b506000611a7f6128b1565b90506000815111611a9f5760405180602001604052806000815250611aca565b80611aa9846128c8565b604051602001611aba929190613a89565b6040516020818303038152906040525b915050919050565b60008073ffffffffffffffffffffffffffffffffffffffff16611af483610db6565b73ffffffffffffffffffffffffffffffffffffffff1603611b4a576040517f08c379a0000000000000000000000000000000000000000000000000000000008152600401611b4190613948565b60405180910390fd5b6006600083815260200190815260200160002060030160009054906101000a900460ff169050919050565b60606000805b600754811015611be2578373ffffffffffffffffffffffffffffffffffffffff16611ba582610db6565b73ffffffffffffffffffffffffffffffffffffffff1603611bcf578180611bcb90613885565b9250505b8080611bda90613885565b915050611b7b565b5060008167ffffffffffffffff811115611bff57611bfe6134cf565b5b604051908082528060200260200182016040528015611c2d5781602001602082028036833780820191505090505b5090506000915060005b600754811015611cbe578473ffffffffffffffffffffffffffffffffffffffff16611c6182610db6565b73ffffffffffffffffffffffffffffffffffffffff1603611cab5780828481518110611c9057611c8f6138cd565b5b6020026020010181815250508280611ca790613885565b9350505b8080611cb690613885565b915050611c37565b508092505050919050565b600073ffffffffffffffffffffffffffffffffffffffff16611cea83610db6565b73ffffffffffffffffffffffffffffffffffffffff1603611d40576040517f08c379a0000000000000000000000000000000000000000000000000000000008152600401611d3790613948565b60405180910390fd5b600073ffffffffffffffffffffffffffffffffffffffff166006600084815260200190815260200160002060010160009054906101000a900473ffffffffffffffffffffffffffffffffffffffff1673ffffffffffffffffffffffffffffffffffffffff1614611de5576040517f08c379a0000000000000000000000000000000000000000000000000000000008152600401611ddc906139e8565b60405180910390fd5b6000339050600042905060008382611dfd9190613851565b9050611e0884610933565b50826006600087815260200190815260200160002060010160006101000a81548173ffffffffffffffffffffffffffffffffffffffff021916908373ffffffffffffffffffffffffffffffffffffffff16021790555080600660008781526020019081526020016000206002018190555060016006600087815260200190815260200160002060030160006101000a81548160ff02191690831515021790555060086000815480929190611ebb90613885565b9190505550600960009054906101000a900473ffffffffffffffffffffffffffffffffffffffff1673ffffffffffffffffffffffffffffffffffffffff166323b872dd3330600a546040518463ffffffff1660e01b8152600401611f2193929190613aad565b6020604051808303816000875af1158015611f40573d6000803e3d6000fd5b505050506040513d601f19601f82011682018060405250810190611f649190613af9565b50600960009054906101000a900473ffffffffffffffffffffffffffffffffffffffff1673ffffffffffffffffffffffffffffffffffffffff1663a9059cbb6006600088815260200190815260200160002060000160009054906101000a900473ffffffffffffffffffffffffffffffffffffffff16600960009054906101000a900473ffffffffffffffffffffffffffffffffffffffff1673ffffffffffffffffffffffffffffffffffffffff166370a08231306040518263ffffffff1660e01b8152600401612035919061318e565b602060405180830381865afa158015612052573d6000803e3d6000fd5b505050506040513d601f19601f820116820180604052508101906120769190613b3b565b6040518363ffffffff1660e01b8152600401612093929190613b68565b6020604051808303816000875af11580156120b2573d6000803e3d6000fd5b505050506040513d601f19601f820116820180604052508101906120d69190613af9565b505050505050565b6000600560008473ffffffffffffffffffffffffffffffffffffffff1673ffffffffffffffffffffffffffffffffffffffff16815260200190815260200160002060008373ffffffffffffffffffffffffffffffffffffffff1673ffffffffffffffffffffffffffffffffffffffff16815260200190815260200160002060009054906101000a900460ff16905092915050565b60066020528060005260406000206000915090508060000160009054906101000a900473ffffffffffffffffffffffffffffffffffffffff16908060010160009054906101000a900473ffffffffffffffffffffffffffffffffffffffff16908060020154908060030160009054906101000a900460ff16905084565b60085481565b60007f01ffc9a7000000000000000000000000000000000000000000000000000000007bffffffffffffffffffffffffffffffffffffffffffffffffffffffff1916827bffffffffffffffffffffffffffffffffffffffffffffffffffffffff1916149050919050565b60008061226b83612996565b9050600073ffffffffffffffffffffffffffffffffffffffff168173ffffffffffffffffffffffffffffffffffffffff16036122de57826040517f7e2732890000000000000000000000000000000000000000000000000000000081526004016122d59190613224565b60405180910390fd5b80915050919050565b60006004600083815260200190815260200160002060009054906101000a900473ffffffffffffffffffffffffffffffffffffffff169050919050565b600033905090565b61233983838360016129d3565b505050565b60008061234a84612996565b9050600073ffffffffffffffffffffffffffffffffffffffff168373ffffffffffffffffffffffffffffffffffffffff161461238c5761238b818486612b98565b5b600073ffffffffffffffffffffffffffffffffffffffff168173ffffffffffffffffffffffffffffffffffffffff161461241d576123ce6000856000806129d3565b6001600360008373ffffffffffffffffffffffffffffffffffffffff1673ffffffffffffffffffffffffffffffffffffffff168152602001908152602001600020600082825403925050819055505b600073ffffffffffffffffffffffffffffffffffffffff168573ffffffffffffffffffffffffffffffffffffffff16146124a0576001600360008773ffffffffffffffffffffffffffffffffffffffff1673ffffffffffffffffffffffffffffffffffffffff168152602001908152602001600020600082825401925050819055505b846002600086815260200190815260200160002060006101000a81548173ffffffffffffffffffffffffffffffffffffffff021916908373ffffffffffffffffffffffffffffffffffffffff160217905550838573ffffffffffffffffffffffffffffffffffffffff168273ffffffffffffffffffffffffffffffffffffffff167fddf252ad1be2c89b69c2b068fc378daa952ba7f163c4a11628f55a4df523b3ef60405160405180910390a4809150509392505050565b600073ffffffffffffffffffffffffffffffffffffffff168273ffffffffffffffffffffffffffffffffffffffff16036125c957816040517f5b08ba180000000000000000000000000000000000000000000000000000000081526004016125c0919061318e565b60405180910390fd5b80600560008573ffffffffffffffffffffffffffffffffffffffff1673ffffffffffffffffffffffffffffffffffffffff16815260200190815260200160002060008473ffffffffffffffffffffffffffffffffffffffff1673ffffffffffffffffffffffffffffffffffffffff16815260200190815260200160002060006101000a81548160ff0219169083151502179055508173ffffffffffffffffffffffffffffffffffffffff168373ffffffffffffffffffffffffffffffffffffffff167f17307eab39ab6107e8899845ad3d59bd9653f200f220920489ca2b5937696c31836040516126ba919061301d565b60405180910390a3505050565b60008373ffffffffffffffffffffffffffffffffffffffff163b1115612878578273ffffffffffffffffffffffffffffffffffffffff1663150b7a0261270b612324565b8685856040518563ffffffff1660e01b815260040161272d9493929190613be6565b6020604051808303816000875af192505050801561276957506040513d601f19601f820116820180604052508101906127669190613c47565b60015b6127ed573d8060008114612799576040519150601f19603f3d011682016040523d82523d6000602084013e61279e565b606091505b5060008151036127e557836040517f64a0ae920000000000000000000000000000000000000000000000000000000081526004016127dc919061318e565b60405180910390fd5b805181602001fd5b63150b7a0260e01b7bffffffffffffffffffffffffffffffffffffffffffffffffffffffff1916817bffffffffffffffffffffffffffffffffffffffffffffffffffffffff19161461287657836040517f64a0ae9200000000000000000000000000000000000000000000000000000000815260040161286d919061318e565b60405180910390fd5b505b50505050565b60008060075490506128908382612c5c565b600760008154809291906128a390613885565b919050555080915050919050565b606060405180602001604052806000815250905090565b6060600060016128d784612d55565b01905060008167ffffffffffffffff8111156128f6576128f56134cf565b5b6040519080825280601f01601f1916602001820160405280156129285781602001600182028036833780820191505090505b509050600082602001820190505b60011561298b578080600190039150507f3031323334353637383961626364656600000000000000000000000000000000600a86061a8153600a858161297f5761297e6137f1565b5b04945060008503612936575b819350505050919050565b60006002600083815260200190815260200160002060009054906101000a900473ffffffffffffffffffffffffffffffffffffffff169050919050565b8080612a0c5750600073ffffffffffffffffffffffffffffffffffffffff168273ffffffffffffffffffffffffffffffffffffffff1614155b15612b40576000612a1c8461225f565b9050600073ffffffffffffffffffffffffffffffffffffffff168373ffffffffffffffffffffffffffffffffffffffff1614158015612a8757508273ffffffffffffffffffffffffffffffffffffffff168173ffffffffffffffffffffffffffffffffffffffff1614155b8015612a9a5750612a9881846120de565b155b15612adc57826040517fa9fbf51f000000000000000000000000000000000000000000000000000000008152600401612ad3919061318e565b60405180910390fd5b8115612b3e57838573ffffffffffffffffffffffffffffffffffffffff168273ffffffffffffffffffffffffffffffffffffffff167f8c5be1e5ebec7d5bd14f71427d1e84f3dd0314c0f7b2291e5b200ac8c7c3b92560405160405180910390a45b505b836004600085815260200190815260200160002060006101000a81548173ffffffffffffffffffffffffffffffffffffffff021916908373ffffffffffffffffffffffffffffffffffffffff16021790555050505050565b612ba3838383612ea8565b612c5757600073ffffffffffffffffffffffffffffffffffffffff168373ffffffffffffffffffffffffffffffffffffffff1603612c1857806040517f7e273289000000000000000000000000000000000000000000000000000000008152600401612c0f9190613224565b60405180910390fd5b81816040517f177e802f000000000000000000000000000000000000000000000000000000008152600401612c4e929190613b68565b60405180910390fd5b505050565b600073ffffffffffffffffffffffffffffffffffffffff168273ffffffffffffffffffffffffffffffffffffffff1603612cce5760006040517f64a0ae92000000000000000000000000000000000000000000000000000000008152600401612cc5919061318e565b60405180910390fd5b6000612cdc8383600061233e565b9050600073ffffffffffffffffffffffffffffffffffffffff168173ffffffffffffffffffffffffffffffffffffffff1614612d505760006040517f73c6ac6e000000000000000000000000000000000000000000000000000000008152600401612d47919061318e565b60405180910390fd5b505050565b600080600090507a184f03e93ff9f4daa797ed6e38ed64bf6a1f0100000000000000008310612db3577a184f03e93ff9f4daa797ed6e38ed64bf6a1f0100000000000000008381612da957612da86137f1565b5b0492506040810190505b6d04ee2d6d415b85acef81000000008310612df0576d04ee2d6d415b85acef81000000008381612de657612de56137f1565b5b0492506020810190505b662386f26fc100008310612e1f57662386f26fc100008381612e1557612e146137f1565b5b0492506010810190505b6305f5e1008310612e48576305f5e1008381612e3e57612e3d6137f1565b5b0492506008810190505b6127108310612e6d576127108381612e6357612e626137f1565b5b0492506004810190505b60648310612e905760648381612e8657612e856137f1565b5b0492506002810190505b600a8310612e9f576001810190505b80915050919050565b60008073ffffffffffffffffffffffffffffffffffffffff168373ffffffffffffffffffffffffffffffffffffffff1614158015612f6057508273ffffffffffffffffffffffffffffffffffffffff168473ffffffffffffffffffffffffffffffffffffffff161480612f215750612f2084846120de565b5b80612f5f57508273ffffffffffffffffffffffffffffffffffffffff16612f47836122e7565b73ffffffffffffffffffffffffffffffffffffffff16145b5b90509392505050565b6000604051905090565b600080fd5b600080fd5b60007fffffffff0000000000000000000000000000000000000000000000000000000082169050919050565b612fb281612f7d565b8114612fbd57600080fd5b50565b600081359050612fcf81612fa9565b92915050565b600060208284031215612feb57612fea612f73565b5b6000612ff984828501612fc0565b91505092915050565b60008115159050919050565b61301781613002565b82525050565b6000602082019050613032600083018461300e565b92915050565b600081519050919050565b600082825260208201905092915050565b60005b83811015613072578082015181840152602081019050613057565b60008484015250505050565b6000601f19601f8301169050919050565b600061309a82613038565b6130a48185613043565b93506130b4818560208601613054565b6130bd8161307e565b840191505092915050565b600060208201905081810360008301526130e2818461308f565b905092915050565b6000819050919050565b6130fd816130ea565b811461310857600080fd5b50565b60008135905061311a816130f4565b92915050565b60006020828403121561313657613135612f73565b5b60006131448482850161310b565b91505092915050565b600073ffffffffffffffffffffffffffffffffffffffff82169050919050565b60006131788261314d565b9050919050565b6131888161316d565b82525050565b60006020820190506131a3600083018461317f565b92915050565b6131b28161316d565b81146131bd57600080fd5b50565b6000813590506131cf816131a9565b92915050565b600080604083850312156131ec576131eb612f73565b5b60006131fa858286016131c0565b925050602061320b8582860161310b565b9150509250929050565b61321e816130ea565b82525050565b60006020820190506132396000830184613215565b92915050565b60008060006060848603121561325857613257612f73565b5b6000613266868287016131c0565b9350506020613277868287016131c0565b92505060406132888682870161310b565b9150509250925092565b6000602082840312156132a8576132a7612f73565b5b60006132b6848285016131c0565b91505092915050565b600081519050919050565b600082825260208201905092915050565b6000819050602082019050919050565b6132f4816130ea565b82525050565b600061330683836132eb565b60208301905092915050565b6000602082019050919050565b600061332a826132bf565b61333481856132ca565b935061333f836132db565b8060005b8381101561337057815161335788826132fa565b975061336283613312565b925050600181019050613343565b5085935050505092915050565b60006020820190508181036000830152613397818461331f565b905092915050565b6000819050919050565b60006133c46133bf6133ba8461314d565b61339f565b61314d565b9050919050565b60006133d6826133a9565b9050919050565b60006133e8826133cb565b9050919050565b6133f8816133dd565b82525050565b600060208201905061341360008301846133ef565b92915050565b600080604083850312156134305761342f612f73565b5b600061343e8582860161310b565b925050602061344f8582860161310b565b9150509250929050565b61346281613002565b811461346d57600080fd5b50565b60008135905061347f81613459565b92915050565b6000806040838503121561349c5761349b612f73565b5b60006134aa858286016131c0565b92505060206134bb85828601613470565b9150509250929050565b600080fd5b600080fd5b7f4e487b7100000000000000000000000000000000000000000000000000000000600052604160045260246000fd5b6135078261307e565b810181811067ffffffffffffffff82111715613526576135256134cf565b5b80604052505050565b6000613539612f69565b905061354582826134fe565b919050565b600067ffffffffffffffff821115613565576135646134cf565b5b61356e8261307e565b9050602081019050919050565b82818337600083830152505050565b600061359d6135988461354a565b61352f565b9050828152602081018484840111156135b9576135b86134ca565b5b6135c484828561357b565b509392505050565b600082601f8301126135e1576135e06134c5565b5b81356135f184826020860161358a565b91505092915050565b6000806000806080858703121561361457613613612f73565b5b6000613622878288016131c0565b9450506020613633878288016131c0565b93505060406136448782880161310b565b925050606085013567ffffffffffffffff81111561366557613664612f78565b5b613671878288016135cc565b91505092959194509250565b6000806040838503121561369457613693612f73565b5b60006136a2858286016131c0565b92505060206136b3858286016131c0565b9150509250929050565b60006080820190506136d2600083018761317f565b6136df602083018661317f565b6136ec6040830185613215565b6136f9606083018461300e565b95945050505050565b7f4e487b7100000000000000000000000000000000000000000000000000000000600052602260045260246000fd5b6000600282049050600182168061374957607f821691505b60208210810361375c5761375b613702565b5b50919050565b7f4e487b7100000000000000000000000000000000000000000000000000000000600052601160045260246000fd5b600061379c826130ea565b9150600082036137af576137ae613762565b5b600182039050919050565b60006060820190506137cf600083018661317f565b6137dc6020830185613215565b6137e9604083018461317f565b949350505050565b7f4e487b7100000000000000000000000000000000000000000000000000000000600052601260045260246000fd5b600061382b826130ea565b9150613836836130ea565b925082613846576138456137f1565b5b828204905092915050565b600061385c826130ea565b9150613867836130ea565b925082820190508082111561387f5761387e613762565b5b92915050565b6000613890826130ea565b91507fffffffffffffffffffffffffffffffffffffffffffffffffffffffffffffffff82036138c2576138c1613762565b5b600182019050919050565b7f4e487b7100000000000000000000000000000000000000000000000000000000600052603260045260246000fd5b7f43617220646f6573206e6f742065786973740000000000000000000000000000600082015250565b6000613932601283613043565b915061393d826138fc565b602082019050919050565b6000602082019050818103600083015261396181613925565b9050919050565b6000613973826130ea565b915061397e836130ea565b925082820390508181111561399657613995613762565b5b92915050565b7f43617220697320616c726561647920626f72726f776564000000000000000000600082015250565b60006139d2601783613043565b91506139dd8261399c565b602082019050919050565b60006020820190508181036000830152613a01816139c5565b9050919050565b6000608082019050613a1d6000830187613215565b613a2a602083018661317f565b613a376040830185613215565b613a446060830184613215565b95945050505050565b600081905092915050565b6000613a6382613038565b613a6d8185613a4d565b9350613a7d818560208601613054565b80840191505092915050565b6000613a958285613a58565b9150613aa18284613a58565b91508190509392505050565b6000606082019050613ac2600083018661317f565b613acf602083018561317f565b613adc6040830184613215565b949350505050565b600081519050613af381613459565b92915050565b600060208284031215613b0f57613b0e612f73565b5b6000613b1d84828501613ae4565b91505092915050565b600081519050613b35816130f4565b92915050565b600060208284031215613b5157613b50612f73565b5b6000613b5f84828501613b26565b91505092915050565b6000604082019050613b7d600083018561317f565b613b8a6020830184613215565b9392505050565b600081519050919050565b600082825260208201905092915050565b6000613bb882613b91565b613bc28185613b9c565b9350613bd2818560208601613054565b613bdb8161307e565b840191505092915050565b6000608082019050613bfb600083018761317f565b613c08602083018661317f565b613c156040830185613215565b8181036060830152613c278184613bad565b905095945050505050565b600081519050613c4181612fa9565b92915050565b600060208284031215613c5d57613c5c612f73565b5b6000613c6b84828501613c32565b9150509291505056fea2646970667358221220802af0f3e1dc919215397d75fba33fd259a54748fa5eb62a66dc5850adc016bf64736f6c6343000814003360806040523480156200001157600080fd5b50604051620014bb380380620014bb8339818101604052810190620000379190620001fa565b818181600390816200004a9190620004ca565b5080600490816200005c9190620004ca565b5050505050620005b1565b6000604051905090565b600080fd5b600080fd5b600080fd5b600080fd5b6000601f19601f8301169050919050565b7f4e487b7100000000000000000000000000000000000000000000000000000000600052604160045260246000fd5b620000d08262000085565b810181811067ffffffffffffffff82111715620000f257620000f162000096565b5b80604052505050565b60006200010762000067565b9050620001158282620000c5565b919050565b600067ffffffffffffffff82111562000138576200013762000096565b5b620001438262000085565b9050602081019050919050565b60005b838110156200017057808201518184015260208101905062000153565b60008484015250505050565b6000620001936200018d846200011a565b620000fb565b905082815260208101848484011115620001b257620001b162000080565b5b620001bf84828562000150565b509392505050565b600082601f830112620001df57620001de6200007b565b5b8151620001f18482602086016200017c565b91505092915050565b6000806040838503121562000214576200021362000071565b5b600083015167ffffffffffffffff81111562000235576200023462000076565b5b6200024385828601620001c7565b925050602083015167ffffffffffffffff81111562000267576200026662000076565b5b6200027585828601620001c7565b9150509250929050565b600081519050919050565b7f4e487b7100000000000000000000000000000000000000000000000000000000600052602260045260246000fd5b60006002820490506001821680620002d257607f821691505b602082108103620002e857620002e76200028a565b5b50919050565b60008190508160005260206000209050919050565b60006020601f8301049050919050565b600082821b905092915050565b600060088302620003527fffffffffffffffffffffffffffffffffffffffffffffffffffffffffffffffff8262000313565b6200035e868362000313565b95508019841693508086168417925050509392505050565b6000819050919050565b6000819050919050565b6000620003ab620003a56200039f8462000376565b62000380565b62000376565b9050919050565b6000819050919050565b620003c7836200038a565b620003df620003d682620003b2565b84845462000320565b825550505050565b600090565b620003f6620003e7565b62000403818484620003bc565b505050565b5b818110156200042b576200041f600082620003ec565b60018101905062000409565b5050565b601f8211156200047a576200044481620002ee565b6200044f8462000303565b810160208510156200045f578190505b620004776200046e8562000303565b83018262000408565b50505b505050565b600082821c905092915050565b60006200049f600019846008026200047f565b1980831691505092915050565b6000620004ba83836200048c565b9150826002028217905092915050565b620004d5826200027f565b67ffffffffffffffff811115620004f157620004f062000096565b5b620004fd8254620002b9565b6200050a8282856200042f565b600060209050601f8311600181146200054257600084156200052d578287015190505b620005398582620004ac565b865550620005a9565b601f1984166200055286620002ee565b60005b828110156200057c5784890151825560018201915060208501945060208101905062000555565b868310156200059c578489015162000598601f8916826200048c565b8355505b6001600288020188555050505b505050505050565b610efa80620005c16000396000f3fe608060405234801561001057600080fd5b506004361061009e5760003560e01c80633884d635116100665780633884d6351461015d57806370a082311461016757806395d89b4114610197578063a9059cbb146101b5578063dd62ed3e146101e55761009e565b806306fdde03146100a3578063095ea7b3146100c157806318160ddd146100f157806323b872dd1461010f578063313ce5671461013f575b600080fd5b6100ab610215565b6040516100b89190610b4e565b60405180910390f35b6100db60048036038101906100d69190610c09565b6102a7565b6040516100e89190610c64565b60405180910390f35b6100f96102ca565b6040516101069190610c8e565b60405180910390f35b61012960048036038101906101249190610ca9565b6102d4565b6040516101369190610c64565b60405180910390f35b610147610303565b6040516101549190610d18565b60405180910390f35b61016561030c565b005b610181600480360381019061017c9190610d33565b61031a565b60405161018e9190610c8e565b60405180910390f35b61019f610362565b6040516101ac9190610b4e565b60405180910390f35b6101cf60048036038101906101ca9190610c09565b6103f4565b6040516101dc9190610c64565b60405180910390f35b6101ff60048036038101906101fa9190610d60565b610417565b60405161020c9190610c8e565b60405180910390f35b60606003805461022490610dcf565b80601f016020809104026020016040519081016040528092919081815260200182805461025090610dcf565b801561029d5780601f106102725761010080835404028352916020019161029d565b820191906000526020600020905b81548152906001019060200180831161028057829003601f168201915b5050505050905090565b6000806102b261049e565b90506102bf8185856104a6565b600191505092915050565b6000600254905090565b6000806102df61049e565b90506102ec8582856104b8565b6102f785858561054c565b60019150509392505050565b60006012905090565b61031833612710610640565b565b60008060008373ffffffffffffffffffffffffffffffffffffffff1673ffffffffffffffffffffffffffffffffffffffff168152602001908152602001600020549050919050565b60606004805461037190610dcf565b80601f016020809104026020016040519081016040528092919081815260200182805461039d90610dcf565b80156103ea5780601f106103bf576101008083540402835291602001916103ea565b820191906000526020600020905b8154815290600101906020018083116103cd57829003601f168201915b5050505050905090565b6000806103ff61049e565b905061040c81858561054c565b600191505092915050565b6000600160008473ffffffffffffffffffffffffffffffffffffffff1673ffffffffffffffffffffffffffffffffffffffff16815260200190815260200160002060008373ffffffffffffffffffffffffffffffffffffffff1673ffffffffffffffffffffffffffffffffffffffff16815260200190815260200160002054905092915050565b600033905090565b6104b383838360016106c2565b505050565b60006104c48484610417565b90507fffffffffffffffffffffffffffffffffffffffffffffffffffffffffffffffff81146105465781811015610536578281836040517ffb8f41b200000000000000000000000000000000000000000000000000000000815260040161052d93929190610e0f565b60405180910390fd5b610545848484840360006106c2565b5b50505050565b600073ffffffffffffffffffffffffffffffffffffffff168373ffffffffffffffffffffffffffffffffffffffff16036105be5760006040517f96c6fd1e0000000000000000000000000000000000000000000000000000000081526004016105b59190610e46565b60405180910390fd5b600073ffffffffffffffffffffffffffffffffffffffff168273ffffffffffffffffffffffffffffffffffffffff16036106305760006040517fec442f050000000000000000000000000000000000000000000000000000000081526004016106279190610e46565b60405180910390fd5b61063b838383610899565b505050565b600073ffffffffffffffffffffffffffffffffffffffff168273ffffffffffffffffffffffffffffffffffffffff16036106b25760006040517fec442f050000000000000000000000000000000000000000000000000000000081526004016106a99190610e46565b60405180910390fd5b6106be60008383610899565b5050565b600073ffffffffffffffffffffffffffffffffffffffff168473ffffffffffffffffffffffffffffffffffffffff16036107345760006040517fe602df0500000000000000000000000000000000000000000000000000000000815260040161072b9190610e46565b60405180910390fd5b600073ffffffffffffffffffffffffffffffffffffffff168373ffffffffffffffffffffffffffffffffffffffff16036107a65760006040517f94280d6200000000000000000000000000000000000000000000000000000000815260040161079d9190610e46565b60405180910390fd5b81600160008673ffffffffffffffffffffffffffffffffffffffff1673ffffffffffffffffffffffffffffffffffffffff16815260200190815260200160002060008573ffffffffffffffffffffffffffffffffffffffff1673ffffffffffffffffffffffffffffffffffffffff168152602001908152602001600020819055508015610893578273ffffffffffffffffffffffffffffffffffffffff168473ffffffffffffffffffffffffffffffffffffffff167f8c5be1e5ebec7d5bd14f71427d1e84f3dd0314c0f7b2291e5b200ac8c7c3b9258460405161088a9190610c8e565b60405180910390a35b50505050565b600073ffffffffffffffffffffffffffffffffffffffff168373ffffffffffffffffffffffffffffffffffffffff16036108eb5780600260008282546108df9190610e90565b925050819055506109be565b60008060008573ffffffffffffffffffffffffffffffffffffffff1673ffffffffffffffffffffffffffffffffffffffff16815260200190815260200160002054905081811015610977578381836040517fe450d38c00000000000000000000000000000000000000000000000000000000815260040161096e93929190610e0f565b60405180910390fd5b8181036000808673ffffffffffffffffffffffffffffffffffffffff1673ffffffffffffffffffffffffffffffffffffffff16815260200190815260200160002081905550505b600073ffffffffffffffffffffffffffffffffffffffff168273ffffffffffffffffffffffffffffffffffffffff1603610a075780600260008282540392505081905550610a54565b806000808473ffffffffffffffffffffffffffffffffffffffff1673ffffffffffffffffffffffffffffffffffffffff168152602001908152602001600020600082825401925050819055505b8173ffffffffffffffffffffffffffffffffffffffff168373ffffffffffffffffffffffffffffffffffffffff167fddf252ad1be2c89b69c2b068fc378daa952ba7f163c4a11628f55a4df523b3ef83604051610ab19190610c8e565b60405180910390a3505050565b600081519050919050565b600082825260208201905092915050565b60005b83811015610af8578082015181840152602081019050610add565b60008484015250505050565b6000601f19601f8301169050919050565b6000610b2082610abe565b610b2a8185610ac9565b9350610b3a818560208601610ada565b610b4381610b04565b840191505092915050565b60006020820190508181036000830152610b688184610b15565b905092915050565b600080fd5b600073ffffffffffffffffffffffffffffffffffffffff82169050919050565b6000610ba082610b75565b9050919050565b610bb081610b95565b8114610bbb57600080fd5b50565b600081359050610bcd81610ba7565b92915050565b6000819050919050565b610be681610bd3565b8114610bf157600080fd5b50565b600081359050610c0381610bdd565b92915050565b60008060408385031215610c2057610c1f610b70565b5b6000610c2e85828601610bbe565b9250506020610c3f85828601610bf4565b9150509250929050565b60008115159050919050565b610c5e81610c49565b82525050565b6000602082019050610c796000830184610c55565b92915050565b610c8881610bd3565b82525050565b6000602082019050610ca36000830184610c7f565b92915050565b600080600060608486031215610cc257610cc1610b70565b5b6000610cd086828701610bbe565b9350506020610ce186828701610bbe565b9250506040610cf286828701610bf4565b9150509250925092565b600060ff82169050919050565b610d1281610cfc565b82525050565b6000602082019050610d2d6000830184610d09565b92915050565b600060208284031215610d4957610d48610b70565b5b6000610d5784828501610bbe565b91505092915050565b60008060408385031215610d7757610d76610b70565b5b6000610d8585828601610bbe565b9250506020610d9685828601610bbe565b9150509250929050565b7f4e487b7100000000000000000000000000000000000000000000000000000000600052602260045260246000fd5b60006002820490506001821680610de757607f821691505b602082108103610dfa57610df9610da0565b5b50919050565b610e0981610b95565b82525050565b6000606082019050610e246000830186610e00565b610e316020830185610c7f565b610e3e6040830184610c7f565b949350505050565b6000602082019050610e5b6000830184610e00565b92915050565b7f4e487b7100000000000000000000000000000000000000000000000000000000600052601160045260246000fd5b6000610e9b82610bd3565b9150610ea683610bd3565b9250828201905080821115610ebe57610ebd610e61565b5b9291505056fea2646970667358221220eb540125b2e1f9c9079f0bf1ac26a58a12c2daa2866154e975b0c7845e20b5a264736f6c63430008140033",
  "linkReferences": {},
  "deployedLinkReferences": {}
}